{
  "contractName": "SupplyChain",
  "abi": [
    {
      "constant": false,
      "inputs": [
        {
          "name": "account",
          "type": "address"
        }
      ],
      "name": "addDealer",
      "outputs": [],
      "payable": false,
      "stateMutability": "nonpayable",
      "type": "function"
    },
    {
      "constant": true,
      "inputs": [
        {
          "name": "account",
          "type": "address"
        }
      ],
      "name": "isManufacturer",
      "outputs": [
        {
          "name": "",
          "type": "bool"
        }
      ],
      "payable": false,
      "stateMutability": "view",
      "type": "function"
    },
    {
      "constant": false,
      "inputs": [
        {
          "name": "account",
          "type": "address"
        }
      ],
      "name": "addSupplier",
      "outputs": [],
      "payable": false,
      "stateMutability": "nonpayable",
      "type": "function"
    },
    {
      "constant": true,
      "inputs": [
        {
          "name": "account",
          "type": "address"
        }
      ],
      "name": "isCustomer",
      "outputs": [
        {
          "name": "",
          "type": "bool"
        }
      ],
      "payable": false,
      "stateMutability": "view",
      "type": "function"
    },
    {
      "constant": false,
      "inputs": [],
      "name": "renounceDealer",
      "outputs": [],
      "payable": false,
      "stateMutability": "nonpayable",
      "type": "function"
    },
    {
      "constant": true,
      "inputs": [
        {
          "name": "account",
          "type": "address"
        }
      ],
      "name": "isSupplier",
      "outputs": [
        {
          "name": "",
          "type": "bool"
        }
      ],
      "payable": false,
      "stateMutability": "view",
      "type": "function"
    },
    {
      "constant": false,
      "inputs": [
        {
          "name": "account",
          "type": "address"
        }
      ],
      "name": "addManufacturer",
      "outputs": [],
      "payable": false,
      "stateMutability": "nonpayable",
      "type": "function"
    },
    {
      "constant": false,
      "inputs": [],
      "name": "renounceOwnership",
      "outputs": [],
      "payable": false,
      "stateMutability": "nonpayable",
      "type": "function"
    },
    {
      "constant": true,
      "inputs": [],
      "name": "owner",
      "outputs": [
        {
          "name": "",
          "type": "address"
        }
      ],
      "payable": false,
      "stateMutability": "view",
      "type": "function"
    },
    {
      "constant": true,
      "inputs": [],
      "name": "isOwner",
      "outputs": [
        {
          "name": "",
          "type": "bool"
        }
      ],
      "payable": false,
      "stateMutability": "view",
      "type": "function"
    },
    {
      "constant": false,
      "inputs": [],
      "name": "renounceSupplier",
      "outputs": [],
      "payable": false,
      "stateMutability": "nonpayable",
      "type": "function"
    },
    {
      "constant": false,
      "inputs": [],
      "name": "renounceCustomer",
      "outputs": [],
      "payable": false,
      "stateMutability": "nonpayable",
      "type": "function"
    },
    {
      "constant": false,
      "inputs": [
        {
          "name": "account",
          "type": "address"
        }
      ],
      "name": "addCustomer",
      "outputs": [],
      "payable": false,
      "stateMutability": "nonpayable",
      "type": "function"
    },
    {
      "constant": false,
      "inputs": [],
      "name": "renounceManufacturer",
      "outputs": [],
      "payable": false,
      "stateMutability": "nonpayable",
      "type": "function"
    },
    {
      "constant": false,
      "inputs": [
        {
          "name": "newOwner",
          "type": "address"
        }
      ],
      "name": "transferOwnership",
      "outputs": [],
      "payable": false,
      "stateMutability": "nonpayable",
      "type": "function"
    },
    {
      "constant": true,
      "inputs": [
        {
          "name": "account",
          "type": "address"
        }
      ],
      "name": "isDealer",
      "outputs": [
        {
          "name": "",
          "type": "bool"
        }
      ],
      "payable": false,
      "stateMutability": "view",
      "type": "function"
    },
    {
      "inputs": [],
      "payable": true,
      "stateMutability": "payable",
      "type": "constructor"
    },
    {
      "anonymous": false,
      "inputs": [
        {
          "indexed": false,
          "name": "upc",
          "type": "uint256"
        }
      ],
      "name": "SupplyOrdered",
      "type": "event"
    },
    {
      "anonymous": false,
      "inputs": [
        {
          "indexed": false,
          "name": "upc",
          "type": "uint256"
        }
      ],
      "name": "SupplyReceived",
      "type": "event"
    },
    {
      "anonymous": false,
      "inputs": [
        {
          "indexed": false,
          "name": "upc",
          "type": "uint256"
        }
      ],
      "name": "Assembled",
      "type": "event"
    },
    {
      "anonymous": false,
      "inputs": [
        {
          "indexed": false,
          "name": "upc",
          "type": "uint256"
        }
      ],
      "name": "ForSaleToDealer",
      "type": "event"
    },
    {
      "anonymous": false,
      "inputs": [
        {
          "indexed": false,
          "name": "upc",
          "type": "uint256"
        }
      ],
      "name": "SoldToDealer",
      "type": "event"
    },
    {
      "anonymous": false,
      "inputs": [
        {
          "indexed": false,
          "name": "upc",
          "type": "uint256"
        }
      ],
      "name": "ShippedToDealer",
      "type": "event"
    },
    {
      "anonymous": false,
      "inputs": [
        {
          "indexed": false,
          "name": "upc",
          "type": "uint256"
        }
      ],
      "name": "ReceivedByDealer",
      "type": "event"
    },
    {
      "anonymous": false,
      "inputs": [
        {
          "indexed": false,
          "name": "upc",
          "type": "uint256"
        }
      ],
      "name": "PurchasedByCustomer",
      "type": "event"
    },
    {
      "anonymous": false,
      "inputs": [
        {
          "indexed": true,
          "name": "account",
          "type": "address"
        }
      ],
      "name": "CustomerAdded",
      "type": "event"
    },
    {
      "anonymous": false,
      "inputs": [
        {
          "indexed": true,
          "name": "account",
          "type": "address"
        }
      ],
      "name": "CustomerRemoved",
      "type": "event"
    },
    {
      "anonymous": false,
      "inputs": [
        {
          "indexed": true,
          "name": "account",
          "type": "address"
        }
      ],
      "name": "DealerAdded",
      "type": "event"
    },
    {
      "anonymous": false,
      "inputs": [
        {
          "indexed": true,
          "name": "account",
          "type": "address"
        }
      ],
      "name": "DealerRemoved",
      "type": "event"
    },
    {
      "anonymous": false,
      "inputs": [
        {
          "indexed": true,
          "name": "account",
          "type": "address"
        }
      ],
      "name": "ManufacturerAdded",
      "type": "event"
    },
    {
      "anonymous": false,
      "inputs": [
        {
          "indexed": true,
          "name": "account",
          "type": "address"
        }
      ],
      "name": "ManufacturerRemoved",
      "type": "event"
    },
    {
      "anonymous": false,
      "inputs": [
        {
          "indexed": true,
          "name": "account",
          "type": "address"
        }
      ],
      "name": "SupplierAdded",
      "type": "event"
    },
    {
      "anonymous": false,
      "inputs": [
        {
          "indexed": true,
          "name": "account",
          "type": "address"
        }
      ],
      "name": "SupplierRemoved",
      "type": "event"
    },
    {
      "anonymous": false,
      "inputs": [
        {
          "indexed": true,
          "name": "oldOwner",
          "type": "address"
        },
        {
          "indexed": true,
          "name": "newOwner",
          "type": "address"
        }
      ],
      "name": "TransferOwnership",
      "type": "event"
    },
    {
      "constant": false,
      "inputs": [],
      "name": "kill",
      "outputs": [],
      "payable": false,
      "stateMutability": "nonpayable",
      "type": "function"
    },
    {
      "constant": false,
      "inputs": [
        {
          "name": "_upc",
          "type": "uint256"
        },
        {
          "name": "_originSupplierID",
          "type": "address"
        },
        {
          "name": "_originManufacturerID",
          "type": "address"
        },
        {
          "name": "_originManufacturerName",
          "type": "string"
        },
        {
          "name": "_originManufacturerInformation",
          "type": "string"
        },
        {
          "name": "_originManufacturerLatitude",
          "type": "string"
        },
        {
          "name": "_originManufacturerLongitude",
          "type": "string"
        },
        {
          "name": "_productNotes",
          "type": "string"
        }
      ],
      "name": "orderSuppliesForItem",
      "outputs": [],
      "payable": false,
      "stateMutability": "nonpayable",
      "type": "function"
    },
    {
      "constant": false,
      "inputs": [
        {
          "name": "_upc",
          "type": "uint256"
        }
      ],
      "name": "receiveSuppliesForItem",
      "outputs": [],
      "payable": false,
      "stateMutability": "nonpayable",
      "type": "function"
    },
    {
      "constant": false,
      "inputs": [
        {
          "name": "_upc",
          "type": "uint256"
        }
      ],
      "name": "assembleAndManufacturedItem",
      "outputs": [],
      "payable": false,
      "stateMutability": "nonpayable",
      "type": "function"
    },
    {
      "constant": false,
      "inputs": [
        {
          "name": "_upc",
          "type": "uint256"
        },
        {
          "name": "_price",
          "type": "uint256"
        }
      ],
      "name": "sellItemToDealer",
      "outputs": [],
      "payable": false,
      "stateMutability": "nonpayable",
      "type": "function"
    },
    {
      "constant": false,
      "inputs": [
        {
          "name": "_upc",
          "type": "uint256"
        },
        {
          "name": "dealerID",
          "type": "address"
        }
      ],
      "name": "buyItembyDealer",
      "outputs": [],
      "payable": true,
      "stateMutability": "payable",
      "type": "function"
    },
    {
      "constant": false,
      "inputs": [
        {
          "name": "_upc",
          "type": "uint256"
        }
      ],
      "name": "shipAutomobileItemToDealer",
      "outputs": [],
      "payable": false,
      "stateMutability": "nonpayable",
      "type": "function"
    },
    {
      "constant": false,
      "inputs": [
        {
          "name": "_upc",
          "type": "uint256"
        }
      ],
      "name": "receiveItemByDealer",
      "outputs": [],
      "payable": false,
      "stateMutability": "nonpayable",
      "type": "function"
    },
    {
      "constant": false,
      "inputs": [
        {
          "name": "_upc",
          "type": "uint256"
        },
        {
          "name": "customerID",
          "type": "address"
        }
      ],
      "name": "purchaseItemByCustomer",
      "outputs": [],
      "payable": true,
      "stateMutability": "payable",
      "type": "function"
    },
    {
      "constant": true,
      "inputs": [
        {
          "name": "_upc",
          "type": "uint256"
        }
      ],
      "name": "fetchItemBufferOne",
      "outputs": [
        {
          "name": "itemSKU",
          "type": "uint256"
        },
        {
          "name": "itemUPC",
          "type": "uint256"
        },
        {
          "name": "ownerID",
          "type": "address"
        },
        {
          "name": "originManufacturerID",
          "type": "address"
        },
        {
          "name": "originManufacturerName",
          "type": "string"
        },
        {
          "name": "originManufacturerInformation",
          "type": "string"
        },
        {
          "name": "originManufacturerLatitude",
          "type": "string"
        },
        {
          "name": "originManufacturerLongitude",
          "type": "string"
        }
      ],
      "payable": false,
      "stateMutability": "view",
      "type": "function"
    },
    {
      "constant": true,
      "inputs": [
        {
          "name": "_upc",
          "type": "uint256"
        }
      ],
      "name": "fetchItemBufferTwo",
      "outputs": [
        {
          "name": "itemSKU",
          "type": "uint256"
        },
        {
          "name": "itemUPC",
          "type": "uint256"
        },
        {
          "name": "productID",
          "type": "uint256"
        },
        {
          "name": "productNotes",
          "type": "string"
        },
        {
          "name": "productPrice",
          "type": "uint256"
        },
        {
          "name": "itemState",
          "type": "uint8"
        },
        {
          "name": "dealerID",
          "type": "address"
        },
        {
          "name": "supplierID",
          "type": "address"
        },
        {
          "name": "customerID",
          "type": "address"
        }
      ],
      "payable": false,
      "stateMutability": "view",
      "type": "function"
    }
  ],
  "bytecode": "0x6080604052336000806101000a81548173ffffffffffffffffffffffffffffffffffffffff021916908373ffffffffffffffffffffffffffffffffffffffff1602179055506000809054906101000a900473ffffffffffffffffffffffffffffffffffffffff1673ffffffffffffffffffffffffffffffffffffffff16600073ffffffffffffffffffffffffffffffffffffffff167f5c486528ec3e3f0ea91181cff8116f02bfa350e03b8b6f12e00765adbb5af85c60405160405180910390a3620000da336200017f640100000000026401000000009004565b620000f433620001e9640100000000026401000000009004565b6200010e3362000253640100000000026401000000009004565b6200012833620002bd640100000000026401000000009004565b33600560006101000a81548173ffffffffffffffffffffffffffffffffffffffff021916908373ffffffffffffffffffffffffffffffffffffffff160217905550600160078190555060016006819055506200047f565b620001a3816001620003276401000000000262002d3a179091906401000000009004565b8073ffffffffffffffffffffffffffffffffffffffff167fa9f13e94f3f7dbf69ac8405e3aa6f43a6f162984687d099c7a5cd9b602552cc260405160405180910390a250565b6200020d816002620003276401000000000262002d3a179091906401000000009004565b8073ffffffffffffffffffffffffffffffffffffffff167f561138658ca49a8540dc70dcfe64c9026c1c5b9344642242dd6562970f9c127860405160405180910390a250565b62000277816003620003276401000000000262002d3a179091906401000000009004565b8073ffffffffffffffffffffffffffffffffffffffff167f98f3b9743e04ddffc992c14d8217e2d0467e51bbec660a88b2c756e6eebc4e6460405160405180910390a250565b620002e1816004620003276401000000000262002d3a179091906401000000009004565b8073ffffffffffffffffffffffffffffffffffffffff167fcd118a02bd36f224f6f1b93812f78d2bbc2c2dc1bc0f60c176e3b4fe09f1483f60405160405180910390a250565b600073ffffffffffffffffffffffffffffffffffffffff168173ffffffffffffffffffffffffffffffffffffffff16141515156200036457600080fd5b6200037f8282620003ea640100000000026401000000009004565b1515156200038c57600080fd5b60018260000160008373ffffffffffffffffffffffffffffffffffffffff1673ffffffffffffffffffffffffffffffffffffffff16815260200190815260200160002060006101000a81548160ff0219169083151502179055505050565b60008073ffffffffffffffffffffffffffffffffffffffff168273ffffffffffffffffffffffffffffffffffffffff16141515156200042857600080fd5b8260000160008373ffffffffffffffffffffffffffffffffffffffff1673ffffffffffffffffffffffffffffffffffffffff16815260200190815260200160002060009054906101000a900460ff16905092915050565b61305a806200048f6000396000f30060806040526004361061015f576000357c0100000000000000000000000000000000000000000000000000000000900463ffffffff16806306d6cb761461016457806317d4a491146101a757806317df47451461020257806328fd5e8314610245578063304cc5e9146102a057806341c0e1b5146102b757806344b67be7146102ce57806346336542146104995780635f8a5afa146104f457806366225ff9146105375780636bd45da4146106a7578063715018a6146106d457806377c45913146106eb5780638da5cb5b146109495780638f32d59b146109a057806392024888146109cf57806396751ad7146109e6578063988b544714610a135780639ef2824c14610a40578063ac98e6db14610a6d578063ad973d7414610a84578063c1865cf214610ac7578063c992f5da14610b07578063de07f34e14610b3e578063e374dbc514610b55578063f2fde38b14610b95578063fe2e81d414610bd8575b600080fd5b34801561017057600080fd5b506101a5600480360381019080803573ffffffffffffffffffffffffffffffffffffffff169060200190929190505050610c33565b005b3480156101b357600080fd5b506101e8600480360381019080803573ffffffffffffffffffffffffffffffffffffffff169060200190929190505050610c97565b604051808215151515815260200191505060405180910390f35b34801561020e57600080fd5b50610243600480360381019080803573ffffffffffffffffffffffffffffffffffffffff169060200190929190505050610cb4565b005b34801561025157600080fd5b50610286600480360381019080803573ffffffffffffffffffffffffffffffffffffffff169060200190929190505050610d18565b604051808215151515815260200191505060405180910390f35b3480156102ac57600080fd5b506102b5610d35565b005b3480156102c357600080fd5b506102cc610d40565b005b3480156102da57600080fd5b5061049760048036038101908080359060200190929190803573ffffffffffffffffffffffffffffffffffffffff169060200190929190803573ffffffffffffffffffffffffffffffffffffffff169060200190929190803590602001908201803590602001908080601f0160208091040260200160405190810160405280939291908181526020018383808284378201915050505050509192919290803590602001908201803590602001908080601f0160208091040260200160405190810160405280939291908181526020018383808284378201915050505050509192919290803590602001908201803590602001908080601f0160208091040260200160405190810160405280939291908181526020018383808284378201915050505050509192919290803590602001908201803590602001908080601f0160208091040260200160405190810160405280939291908181526020018383808284378201915050505050509192919290803590602001908201803590602001908080601f0160208091040260200160405190810160405280939291908181526020018383808284378201915050505050509192919290505050610dd3565b005b3480156104a557600080fd5b506104da600480360381019080803573ffffffffffffffffffffffffffffffffffffffff169060200190929190505050611262565b604051808215151515815260200191505060405180910390f35b34801561050057600080fd5b50610535600480360381019080803573ffffffffffffffffffffffffffffffffffffffff16906020019092919050505061127e565b005b34801561054357600080fd5b50610562600480360381019080803590602001909291905050506112e2565b604051808a81526020018981526020018881526020018060200187815260200186600781111561058e57fe5b60ff1681526020018573ffffffffffffffffffffffffffffffffffffffff1673ffffffffffffffffffffffffffffffffffffffff1681526020018473ffffffffffffffffffffffffffffffffffffffff1673ffffffffffffffffffffffffffffffffffffffff1681526020018373ffffffffffffffffffffffffffffffffffffffff1673ffffffffffffffffffffffffffffffffffffffff168152602001828103825288818151815260200191508051906020019080838360005b83811015610664578082015181840152602081019050610649565b50505050905090810190601f1680156106915780820380516001836020036101000a031916815260200191505b509a505050505050505050505060405180910390f35b3480156106b357600080fd5b506106d2600480360381019080803590602001909291905050506114ff565b005b3480156106e057600080fd5b506106e9611743565b005b3480156106f757600080fd5b506107166004803603810190808035906020019092919050505061185e565b604051808981526020018881526020018773ffffffffffffffffffffffffffffffffffffffff1673ffffffffffffffffffffffffffffffffffffffff1681526020018673ffffffffffffffffffffffffffffffffffffffff1673ffffffffffffffffffffffffffffffffffffffff16815260200180602001806020018060200180602001858103855289818151815260200191508051906020019080838360005b838110156107d25780820151818401526020810190506107b7565b50505050905090810190601f1680156107ff5780820380516001836020036101000a031916815260200191505b50858103845288818151815260200191508051906020019080838360005b8381101561083857808201518184015260208101905061081d565b50505050905090810190601f1680156108655780820380516001836020036101000a031916815260200191505b50858103835287818151815260200191508051906020019080838360005b8381101561089e578082015181840152602081019050610883565b50505050905090810190601f1680156108cb5780820380516001836020036101000a031916815260200191505b50858103825286818151815260200191508051906020019080838360005b838110156109045780820151818401526020810190506108e9565b50505050905090810190601f1680156109315780820380516001836020036101000a031916815260200191505b509c5050505050505050505050505060405180910390f35b34801561095557600080fd5b5061095e611bf5565b604051808273ffffffffffffffffffffffffffffffffffffffff1673ffffffffffffffffffffffffffffffffffffffff16815260200191505060405180910390f35b3480156109ac57600080fd5b506109b5611c1e565b604051808215151515815260200191505060405180910390f35b3480156109db57600080fd5b506109e4611c75565b005b3480156109f257600080fd5b50610a1160048036038101908080359060200190929190505050611c80565b005b348015610a1f57600080fd5b50610a3e60048036038101908080359060200190929190505050611dae565b005b348015610a4c57600080fd5b50610a6b60048036038101908080359060200190929190505050611edc565b005b348015610a7957600080fd5b50610a8261200a565b005b348015610a9057600080fd5b50610ac5600480360381019080803573ffffffffffffffffffffffffffffffffffffffff169060200190929190505050612015565b005b610b0560048036038101908080359060200190929190803573ffffffffffffffffffffffffffffffffffffffff169060200190929190505050612079565b005b348015610b1357600080fd5b50610b3c6004803603810190808035906020019092919080359060200190929190505050612372565b005b348015610b4a57600080fd5b50610b536124bc565b005b610b9360048036038101908080359060200190929190803573ffffffffffffffffffffffffffffffffffffffff1690602001909291905050506124c7565b005b348015610ba157600080fd5b50610bd6600480360381019080803573ffffffffffffffffffffffffffffffffffffffff169060200190929190505050612813565b005b348015610be457600080fd5b50610c19600480360381019080803573ffffffffffffffffffffffffffffffffffffffff16906020019092919050505061287b565b604051808215151515815260200191505060405180910390f35b610c3c3361287b565b1515610c8b576040517f08c379a0000000000000000000000000000000000000000000000000000000008152600401808060200182810382526000815260200160200191505060405180910390fd5b610c9481612898565b50565b6000610cad8260026128f290919063ffffffff16565b9050919050565b610cbd33611262565b1515610d0c576040517f08c379a0000000000000000000000000000000000000000000000000000000008152600401808060200182810382526000815260200160200191505060405180910390fd5b610d1581612986565b50565b6000610d2e8260046128f290919063ffffffff16565b9050919050565b610d3e336129e0565b565b600560009054906101000a900473ffffffffffffffffffffffffffffffffffffffff1673ffffffffffffffffffffffffffffffffffffffff163373ffffffffffffffffffffffffffffffffffffffff161415610dd157600560009054906101000a900473ffffffffffffffffffffffffffffffffffffffff1673ffffffffffffffffffffffffffffffffffffffff16ff5b565b610ddb612e99565b610de433610c97565b1515610e33576040517f08c379a0000000000000000000000000000000000000000000000000000000008152600401808060200182810382526000815260200160200191505060405180910390fd5b600560009054906101000a900473ffffffffffffffffffffffffffffffffffffffff1673ffffffffffffffffffffffffffffffffffffffff163373ffffffffffffffffffffffffffffffffffffffff16141515610e8f57600080fd5b8881602001818152505060075481600001818152505086816040019073ffffffffffffffffffffffffffffffffffffffff16908173ffffffffffffffffffffffffffffffffffffffff168152505086816060019073ffffffffffffffffffffffffffffffffffffffff16908173ffffffffffffffffffffffffffffffffffffffff168152505087816101a0019073ffffffffffffffffffffffffffffffffffffffff16908173ffffffffffffffffffffffffffffffffffffffff1681525050858160800181905250848160a00181905250838160c00181905250828160e0018190525060008161016001906007811115610f8557fe5b90816007811115610f9257fe5b8152505081816101200181905250600754600654018161010001818152505080600860008b8152602001908152602001600020600082015181600001556020820151816001015560408201518160020160006101000a81548173ffffffffffffffffffffffffffffffffffffffff021916908373ffffffffffffffffffffffffffffffffffffffff16021790555060608201518160030160006101000a81548173ffffffffffffffffffffffffffffffffffffffff021916908373ffffffffffffffffffffffffffffffffffffffff1602179055506080820151816004019080519060200190611083929190612f89565b5060a08201518160050190805190602001906110a0929190612f89565b5060c08201518160060190805190602001906110bd929190612f89565b5060e08201518160070190805190602001906110da929190612f89565b506101008201518160080155610120820151816009019080519060200190611103929190612f89565b5061014082015181600a015561016082015181600b0160006101000a81548160ff0219169083600781111561113457fe5b021790555061018082015181600b0160016101000a81548173ffffffffffffffffffffffffffffffffffffffff021916908373ffffffffffffffffffffffffffffffffffffffff1602179055506101a082015181600c0160006101000a81548173ffffffffffffffffffffffffffffffffffffffff021916908373ffffffffffffffffffffffffffffffffffffffff1602179055506101c082015181600d0160006101000a81548173ffffffffffffffffffffffffffffffffffffffff021916908373ffffffffffffffffffffffffffffffffffffffff1602179055509050506001600754016007819055507f35635ea83002e9fcd4abec749de5fe19ec2c35a9d1c7d8a55876062fae3b888e896040518082815260200191505060405180910390a1505050505050505050565b60006112788260016128f290919063ffffffff16565b50919050565b61128733610c97565b15156112d6576040517f08c379a0000000000000000000000000000000000000000000000000000000008152600401808060200182810382526000815260200160200191505060405180910390fd5b6112df81612a3a565b50565b600080600060606000806000806000600860008b8152602001908152602001600020600001549850600860008b8152602001908152602001600020600101549750600860008b8152602001908152602001600020600801549650600860008b8152602001908152602001600020600a01549450600860008b81526020019081526020016000206009018054600181600116156101000203166002900480601f0160208091040260200160405190810160405280929190818152602001828054600181600116156101000203166002900480156113ff5780601f106113d4576101008083540402835291602001916113ff565b820191906000526020600020905b8154815290600101906020018083116113e257829003601f168201915b50505050509550600860008b8152602001908152602001600020600b0160009054906101000a900460ff169350600860008b8152602001908152602001600020600b0160019054906101000a900473ffffffffffffffffffffffffffffffffffffffff169250600860008b8152602001908152602001600020600c0160009054906101000a900473ffffffffffffffffffffffffffffffffffffffff169150600860008b8152602001908152602001600020600d0160009054906101000a900473ffffffffffffffffffffffffffffffffffffffff1690508888888888888888889850985098509850985098509850985098509193959799909294969850565b806005600781111561150d57fe5b60086000838152602001908152602001600020600b0160009054906101000a900460ff16600781111561153c57fe5b14151561154857600080fd5b6008600083815260200190815260200160002060030160009054906101000a900473ffffffffffffffffffffffffffffffffffffffff168073ffffffffffffffffffffffffffffffffffffffff163373ffffffffffffffffffffffffffffffffffffffff161415156115b957600080fd5b60086000848152602001908152602001600020600b0160019054906101000a900473ffffffffffffffffffffffffffffffffffffffff166008600085815260200190815260200160002060020160006101000a81548173ffffffffffffffffffffffffffffffffffffffff021916908373ffffffffffffffffffffffffffffffffffffffff16021790555060086000848152602001908152602001600020600b0160019054906101000a900473ffffffffffffffffffffffffffffffffffffffff1660086000858152602001908152602001600020600b0160016101000a81548173ffffffffffffffffffffffffffffffffffffffff021916908373ffffffffffffffffffffffffffffffffffffffff160217905550600660086000858152602001908152602001600020600b0160006101000a81548160ff0219169083600781111561170257fe5b02179055507f3855477a432cf8dace71e4413219efb01dcbd67b862e1f6f405c24dff84af921836040518082815260200191505060405180910390a1505050565b600560009054906101000a900473ffffffffffffffffffffffffffffffffffffffff1673ffffffffffffffffffffffffffffffffffffffff163373ffffffffffffffffffffffffffffffffffffffff1614151561179f57600080fd5b600073ffffffffffffffffffffffffffffffffffffffff166000809054906101000a900473ffffffffffffffffffffffffffffffffffffffff1673ffffffffffffffffffffffffffffffffffffffff167f5c486528ec3e3f0ea91181cff8116f02bfa350e03b8b6f12e00765adbb5af85c60405160405180910390a360008060006101000a81548173ffffffffffffffffffffffffffffffffffffffff021916908373ffffffffffffffffffffffffffffffffffffffff160217905550565b600080600080606080606080600860008a8152602001908152602001600020600101549650600860008a8152602001908152602001600020600001549750600860008a815260200190815260200160002060020160009054906101000a900473ffffffffffffffffffffffffffffffffffffffff169550600860008a815260200190815260200160002060030160009054906101000a900473ffffffffffffffffffffffffffffffffffffffff169450600860008a81526020019081526020016000206004018054600181600116156101000203166002900480601f0160208091040260200160405190810160405280929190818152602001828054600181600116156101000203166002900480156119b85780601f1061198d576101008083540402835291602001916119b8565b820191906000526020600020905b81548152906001019060200180831161199b57829003601f168201915b50505050509350600860008a81526020019081526020016000206005018054600181600116156101000203166002900480601f016020809104026020016040519081016040528092919081815260200182805460018160011615610100020316600290048015611a695780601f10611a3e57610100808354040283529160200191611a69565b820191906000526020600020905b815481529060010190602001808311611a4c57829003601f168201915b50505050509250600860008a81526020019081526020016000206006018054600181600116156101000203166002900480601f016020809104026020016040519081016040528092919081815260200182805460018160011615610100020316600290048015611b1a5780601f10611aef57610100808354040283529160200191611b1a565b820191906000526020600020905b815481529060010190602001808311611afd57829003601f168201915b50505050509150600860008a81526020019081526020016000206007018054600181600116156101000203166002900480601f016020809104026020016040519081016040528092919081815260200182805460018160011615610100020316600290048015611bcb5780601f10611ba057610100808354040283529160200191611bcb565b820191906000526020600020905b815481529060010190602001808311611bae57829003601f168201915b50505050509050878787878787878797509750975097509750975097509750919395975091939597565b60008060009054906101000a900473ffffffffffffffffffffffffffffffffffffffff16905090565b60008060009054906101000a900473ffffffffffffffffffffffffffffffffffffffff1673ffffffffffffffffffffffffffffffffffffffff163373ffffffffffffffffffffffffffffffffffffffff1614905090565b611c7e33612a94565b565b8060016007811115611c8e57fe5b60086000838152602001908152602001600020600b0160009054906101000a900460ff166007811115611cbd57fe5b141515611cc957600080fd5b6008600083815260200190815260200160002060030160009054906101000a900473ffffffffffffffffffffffffffffffffffffffff168073ffffffffffffffffffffffffffffffffffffffff163373ffffffffffffffffffffffffffffffffffffffff16141515611d3a57600080fd5b600260086000858152602001908152602001600020600b0160006101000a81548160ff02191690836007811115611d6d57fe5b02179055507f0336171fb29140c770116f6f4781be5f1a3cb04de9b019c9c8eb7350d67f67a5836040518082815260200191505060405180910390a1505050565b8060046007811115611dbc57fe5b60086000838152602001908152602001600020600b0160009054906101000a900460ff166007811115611deb57fe5b141515611df757600080fd5b6008600083815260200190815260200160002060030160009054906101000a900473ffffffffffffffffffffffffffffffffffffffff168073ffffffffffffffffffffffffffffffffffffffff163373ffffffffffffffffffffffffffffffffffffffff16141515611e6857600080fd5b600560086000858152602001908152602001600020600b0160006101000a81548160ff02191690836007811115611e9b57fe5b02179055507fe82aabe58142217547cceea657acee3a0dafe2100dcb0f15e4e51ee52a0693dd836040518082815260200191505060405180910390a1505050565b8060006007811115611eea57fe5b60086000838152602001908152602001600020600b0160009054906101000a900460ff166007811115611f1957fe5b141515611f2557600080fd5b6008600083815260200190815260200160002060030160009054906101000a900473ffffffffffffffffffffffffffffffffffffffff168073ffffffffffffffffffffffffffffffffffffffff163373ffffffffffffffffffffffffffffffffffffffff16141515611f9657600080fd5b600160086000858152602001908152602001600020600b0160006101000a81548160ff02191690836007811115611fc957fe5b02179055507f930d358412c2b7f21d4996f712c3d7eaf69963dc3798920598eaeb56420d28b4836040518082815260200191505060405180910390a1505050565b61201333612aee565b565b61201e33610d18565b151561206d576040517f08c379a0000000000000000000000000000000000000000000000000000000008152600401808060200182810382526000815260200160200191505060405180910390fd5b61207681612b48565b50565b816003600781111561208757fe5b60086000838152602001908152602001600020600b0160009054906101000a900460ff1660078111156120b657fe5b1415156120c257600080fd5b60086000848152602001908152602001600020600a01548034101515156120e857600080fd5b836000806008600088815260200190815260200160002060030160009054906101000a900473ffffffffffffffffffffffffffffffffffffffff166008600089815260200190815260200160002060020160006101000a81548173ffffffffffffffffffffffffffffffffffffffff021916908373ffffffffffffffffffffffffffffffffffffffff1602179055508560086000898152602001908152602001600020600b0160016101000a81548173ffffffffffffffffffffffffffffffffffffffff021916908373ffffffffffffffffffffffffffffffffffffffff160217905550600460086000898152602001908152602001600020600b0160006101000a81548160ff021916908360078111156121ff57fe5b021790555060086000888152602001908152602001600020600b0160019054906101000a900473ffffffffffffffffffffffffffffffffffffffff1673ffffffffffffffffffffffffffffffffffffffff166108fc600860008a8152602001908152602001600020600a01549081150290604051600060405180830381858888f19350505050158015612296573d6000803e3d6000fd5b507f27f206de7c7bd1f624bcfe482b058afd7becabac20148c2c8a6512a0e6fe8e5c876040518082815260200191505060405180910390a160086000848152602001908152602001600020600a01549150813403905060086000848152602001908152602001600020600b0160019054906101000a900473ffffffffffffffffffffffffffffffffffffffff1673ffffffffffffffffffffffffffffffffffffffff166108fc829081150290604051600060405180830381858888f19350505050158015612368573d6000803e3d6000fd5b5050505050505050565b816002600781111561238057fe5b60086000838152602001908152602001600020600b0160009054906101000a900460ff1660078111156123af57fe5b1415156123bb57600080fd5b6008600084815260200190815260200160002060020160009054906101000a900473ffffffffffffffffffffffffffffffffffffffff168073ffffffffffffffffffffffffffffffffffffffff163373ffffffffffffffffffffffffffffffffffffffff1614151561242c57600080fd5b8260086000868152602001908152602001600020600a0181905550600360086000868152602001908152602001600020600b0160006101000a81548160ff0219169083600781111561247a57fe5b02179055507f0acb95dd53ca57b6b3069ed1960a256b37ec20235a6f46aec02d7b5b6dbed624846040518082815260200191505060405180910390a150505050565b6124c533612ba2565b565b81600660078111156124d557fe5b60086000838152602001908152602001600020600b0160009054906101000a900460ff16600781111561250457fe5b141515612554576040517f08c379a0000000000000000000000000000000000000000000000000000000008152600401808060200182810382526000815260200160200191505060405180910390fd5b60086000848152602001908152602001600020600a015480341015151561257a57600080fd5b8360008060086000888152602001908152602001600020600b0160019054906101000a900473ffffffffffffffffffffffffffffffffffffffff166008600089815260200190815260200160002060020160006101000a81548173ffffffffffffffffffffffffffffffffffffffff021916908373ffffffffffffffffffffffffffffffffffffffff1602179055508560086000898152602001908152602001600020600d0160006101000a81548173ffffffffffffffffffffffffffffffffffffffff021916908373ffffffffffffffffffffffffffffffffffffffff160217905550600760086000898152602001908152602001600020600b0160006101000a81548160ff0219169083600781111561269157fe5b021790555060086000888152602001908152602001600020600d0160009054906101000a900473ffffffffffffffffffffffffffffffffffffffff1673ffffffffffffffffffffffffffffffffffffffff166108fc600a6003600860008c8152602001908152602001600020600a01540281151561270b57fe5b049081150290604051600060405180830381858888f19350505050158015612737573d6000803e3d6000fd5b507ffd054e59d299873fab61a3c67d86d3a139b75dcd5cd82894d8983fc5e2669c82876040518082815260200191505060405180910390a160086000848152602001908152602001600020600a01549150813403905060086000848152602001908152602001600020600d0160009054906101000a900473ffffffffffffffffffffffffffffffffffffffff1673ffffffffffffffffffffffffffffffffffffffff166108fc829081150290604051600060405180830381858888f19350505050158015612809573d6000803e3d6000fd5b5050505050505050565b600560009054906101000a900473ffffffffffffffffffffffffffffffffffffffff1673ffffffffffffffffffffffffffffffffffffffff163373ffffffffffffffffffffffffffffffffffffffff1614151561286f57600080fd5b61287881612bfc565b50565b60006128918260036128f290919063ffffffff16565b9050919050565b6128ac816003612d3a90919063ffffffff16565b8073ffffffffffffffffffffffffffffffffffffffff167f98f3b9743e04ddffc992c14d8217e2d0467e51bbec660a88b2c756e6eebc4e6460405160405180910390a250565b60008073ffffffffffffffffffffffffffffffffffffffff168273ffffffffffffffffffffffffffffffffffffffff161415151561292f57600080fd5b8260000160008373ffffffffffffffffffffffffffffffffffffffff1673ffffffffffffffffffffffffffffffffffffffff16815260200190815260200160002060009054906101000a900460ff16905092915050565b61299a816001612d3a90919063ffffffff16565b8073ffffffffffffffffffffffffffffffffffffffff167fa9f13e94f3f7dbf69ac8405e3aa6f43a6f162984687d099c7a5cd9b602552cc260405160405180910390a250565b6129f4816003612dea90919063ffffffff16565b8073ffffffffffffffffffffffffffffffffffffffff167f70c780c5d8c2660f173d2466e1f3d38e23d251e8d4620403b1577ca4415a3db260405160405180910390a250565b612a4e816002612d3a90919063ffffffff16565b8073ffffffffffffffffffffffffffffffffffffffff167f561138658ca49a8540dc70dcfe64c9026c1c5b9344642242dd6562970f9c127860405160405180910390a250565b612aa8816001612dea90919063ffffffff16565b8073ffffffffffffffffffffffffffffffffffffffff167f278a641d7aa9abcb166cd13a30fc6d7f21034d4c003ce509a84214e11faa77c060405160405180910390a250565b612b02816004612dea90919063ffffffff16565b8073ffffffffffffffffffffffffffffffffffffffff167fb4c88a9c5cd906354abdd1cc29e4f94c6c4de90754fb80ce51e6a33417bc81b660405160405180910390a250565b612b5c816004612d3a90919063ffffffff16565b8073ffffffffffffffffffffffffffffffffffffffff167fcd118a02bd36f224f6f1b93812f78d2bbc2c2dc1bc0f60c176e3b4fe09f1483f60405160405180910390a250565b612bb6816002612dea90919063ffffffff16565b8073ffffffffffffffffffffffffffffffffffffffff167f2fed5abf6a80d6dfe30b4895481b2fc5d7dce5f8f7b931832f4a2947d5040c7f60405160405180910390a250565b600073ffffffffffffffffffffffffffffffffffffffff168173ffffffffffffffffffffffffffffffffffffffff1614151515612c7c576040517f08c379a0000000000000000000000000000000000000000000000000000000008152600401808060200182810382526000815260200160200191505060405180910390fd5b8073ffffffffffffffffffffffffffffffffffffffff166000809054906101000a900473ffffffffffffffffffffffffffffffffffffffff1673ffffffffffffffffffffffffffffffffffffffff167f5c486528ec3e3f0ea91181cff8116f02bfa350e03b8b6f12e00765adbb5af85c60405160405180910390a3806000806101000a81548173ffffffffffffffffffffffffffffffffffffffff021916908373ffffffffffffffffffffffffffffffffffffffff16021790555050565b600073ffffffffffffffffffffffffffffffffffffffff168173ffffffffffffffffffffffffffffffffffffffff1614151515612d7657600080fd5b612d8082826128f2565b151515612d8c57600080fd5b60018260000160008373ffffffffffffffffffffffffffffffffffffffff1673ffffffffffffffffffffffffffffffffffffffff16815260200190815260200160002060006101000a81548160ff0219169083151502179055505050565b600073ffffffffffffffffffffffffffffffffffffffff168173ffffffffffffffffffffffffffffffffffffffff1614151515612e2657600080fd5b612e3082826128f2565b1515612e3b57600080fd5b60008260000160008373ffffffffffffffffffffffffffffffffffffffff1673ffffffffffffffffffffffffffffffffffffffff16815260200190815260200160002060006101000a81548160ff0219169083151502179055505050565b6101e0604051908101604052806000815260200160008152602001600073ffffffffffffffffffffffffffffffffffffffff168152602001600073ffffffffffffffffffffffffffffffffffffffff1681526020016060815260200160608152602001606081526020016060815260200160008152602001606081526020016000815260200160006007811115612f2c57fe5b8152602001600073ffffffffffffffffffffffffffffffffffffffff168152602001600073ffffffffffffffffffffffffffffffffffffffff168152602001600073ffffffffffffffffffffffffffffffffffffffff1681525090565b828054600181600116156101000203166002900490600052602060002090601f016020900481019282601f10612fca57805160ff1916838001178555612ff8565b82800160010185558215612ff8579182015b82811115612ff7578251825591602001919060010190612fdc565b5b5090506130059190613009565b5090565b61302b91905b8082111561302757600081600090555060010161300f565b5090565b905600a165627a7a7230582032b39a40f2cde8a9e7c876114300912a4bbb4c22306888cea5ade720cfb6d21c0029",
  "source": "pragma solidity ^0.4.26;\n\nimport \"../AutomobileCore/Ownable.sol\";\nimport \"../AutomobileAccessControl/SupplierRole.sol\";\nimport \"../AutomobileAccessControl/ManufacturerRole.sol\";\nimport \"../AutomobileAccessControl/DealerRole.sol\";\nimport \"../AutomobileAccessControl/CustomerRole.sol\";\n\n\n// Define a contract 'Supplychain'\ncontract SupplyChain is Ownable, SupplierRole, ManufacturerRole, DealerRole, CustomerRole{\n\n  // Define 'owner'\n  address supplyChainOwner;\n\n  // Define a variable called 'upc' for Universal Product Code (UPC)\n  uint  upc;\n\n  // Define a variable called 'sku' for Stock Keeping Unit (SKU)\n  uint  sku;\n\n  // Define a public mapping 'items' that maps the UPC to an AutomobileItem.\n  mapping (uint => AutomobileItem) items;\n\n  // Define a public mapping 'itemsHistory' that maps the UPC to an array of TxHash, \n  // that track its journey through the supply chain -- to be sent from DApp.\n  mapping (uint => string[]) itemsHistory;\n  \n  // Define enum 'State' with the following values:\n  enum State \n  {\n    SupplyOrdered,       // 0\n    SupplyReceived,      // 1\n    Assembled,           // 2\n    ForSaleToDealer,     // 3\n    SoldToDealer,        // 4\n    ShippedToDealer,     // 5\n    ReceivedByDealer,    // 6\n    PurchasedByCustomer   // 7\n  }\n\n  State constant defaultState = State.SupplyOrdered;\n\n  // Define a struct 'Item' with the following fields:\n  struct AutomobileItem {\n    uint    sku;  // Stock Keeping Unit (SKU)\n    uint    upc; // Universal Product Code (UPC), generated by the Manufacturer, goes on the package, can be verified by the Customer\n    address ownerID;  // Metamask-Ethereum address of the current owner as the product moves through 8 stages\n    address originManufacturerID; // Metamask-Ethereum address of the Manufacturer\n    string  originManufacturerName; // Manufacturer Name\n    string  originManufacturerInformation;  // Manufacturer Information\n    string  originManufacturerLatitude; // Manufacturer Latitude\n    string  originManufacturerLongitude;  // Manufacturer Longitude\n    uint    productID;  // Product ID potentially a combination of upc + sku\n    string  productNotes; // Product Notes\n    uint    productPrice; // Product Price\n    State   itemState;  // Product State as represented in the enum above\n    address dealerID;  // Metamask-Ethereum address of the Dealer\n    address supplierID; // Metamask-Ethereum address of the Supplier\n    address customerID; // Metamask-Ethereum address of the Customer\n  }\n\n  // Define 8 events with the same 8 state values and accept 'upc' as input argument\n  event SupplyOrdered(uint upc);\n  event SupplyReceived(uint upc);\n  event Assembled(uint upc);\n  event ForSaleToDealer(uint upc);\n  event SoldToDealer(uint upc);\n  event ShippedToDealer(uint upc);\n  event ReceivedByDealer(uint upc);\n  event PurchasedByCustomer(uint upc);\n\n  // Define a modifer that checks to see if msg.sender == owner of the contract\n  modifier onlyOwner() {\n    require(msg.sender == supplyChainOwner);\n    _;\n  }\n\n  // Define a modifer that verifies the Caller\n  modifier verifyCaller (address _address) {\n    require(msg.sender == _address); \n    _;\n  }\n\n  // Define a modifier that checks if the paid amount is sufficient to cover the price\n  modifier paidEnough(uint _price) { \n    require(msg.value >= _price); \n    _;\n  }\n  \n  // Define a modifier that checks the price and refunds the remaining balance to customer\n  modifier checkValue(uint _upc) {\n    _;\n    uint _price = items[_upc].productPrice;\n    uint amountToReturn = msg.value - _price;\n    items[_upc].customerID.transfer(amountToReturn);\n  }\n\n  // Define a modifier that checks the price and refunds the remaining balance to dealer\n  modifier checkValueTransferBackToDealer(uint _upc) {\n    _;\n    uint _price = items[_upc].productPrice;\n    uint amountToReturn = msg.value - _price;\n    items[_upc].dealerID.transfer(amountToReturn);\n  }\n\n  // Define a modifier that checks if an item.state of a upc is SupplyOrdered\n  modifier supplyOrdered(uint _upc) {\n    require(items[_upc].itemState == State.SupplyOrdered);\n    _;\n  }\n\n  // Define a modifier that checks if an item.state of a upc is SupplyReceived\n  modifier supplyReceived(uint _upc) {\n  require(items[_upc].itemState == State.SupplyReceived);\n    _;\n  }\n  \n  // Define a modifier that checks if an item.state of a upc is Assembled\n  modifier assembled(uint _upc) {\n  require(items[_upc].itemState == State.Assembled);\n    _;\n  }\n\n  // Define a modifier that checks if an item.state of a upc is ForSaleToDealer\n  modifier forSaleToDealer(uint _upc) {\n  require(items[_upc].itemState == State.ForSaleToDealer);\n    _;\n  }\n\n  // Define a modifier that checks if an item.state of a upc is SoldToDealer\n  modifier soldToDealer(uint _upc) {\n  require(items[_upc].itemState == State.SoldToDealer);\n    _;\n  }\n  \n  // Define a modifier that checks if an item.state of a upc is ShippedToDealer\n  modifier shippedToDealer(uint _upc) {\n  require(items[_upc].itemState == State.ShippedToDealer);\n    _;\n  }\n\n  // Define a modifier that checks if an item.state of a upc is ReceivedByDealer\n  modifier receivedByDealer(uint _upc) {\n  require(items[_upc].itemState == State.ReceivedByDealer, \"\");\n    _;\n  }\n\n  // Define a modifier that checks if an item.state of a upc is PurchasedByCustomer\n  modifier purchasedByCustomer(uint _upc) {\n  require(items[_upc].itemState == State.PurchasedByCustomer, \"\");\n    _;\n  }\n\n  // In the constructor set 'owner' to the address that instantiated the contract\n  // and set 'sku' to 1\n  // and set 'upc' to 1\n  constructor() public payable {\n    supplyChainOwner = msg.sender;\n    sku = 1;\n    upc = 1;\n  }\n\n  // Define a function 'kill' if required\n  function kill() public {\n    if (msg.sender == supplyChainOwner) {\n      selfdestruct(supplyChainOwner);\n    }\n  }\n\n  // Define a function 'orderSuppliesForItem' that allows a Manufacturer to order supplies for autombile and mark as supplyOrdered\n  function orderSuppliesForItem(\n    uint _upc,\n    address _originSupplierID, \n    address _originManufacturerID, \n    string _originManufacturerName, \n    string _originManufacturerInformation, \n    string _originManufacturerLatitude, \n    string _originManufacturerLongitude, \n    string _productNotes) public onlyManufacturer() onlyOwner()\n  {\n   // addManufacturer(_originManufacturerID);\n  //  addSupplier(_originSupplierID);\n\n\n    // Add the new item(Automobile e.g. BMW) as part of orderSupplies\n    AutomobileItem memory newAutomobileItem;\n    newAutomobileItem.upc = _upc;\n    newAutomobileItem.sku = sku;\n    newAutomobileItem.ownerID = _originManufacturerID;\n    newAutomobileItem.originManufacturerID = _originManufacturerID;\n    newAutomobileItem.supplierID = _originSupplierID;\n    newAutomobileItem.originManufacturerName = _originManufacturerName;\n    newAutomobileItem.originManufacturerInformation = _originManufacturerInformation;\n    newAutomobileItem.originManufacturerLatitude = _originManufacturerLatitude;\n    newAutomobileItem.originManufacturerLongitude = _originManufacturerLongitude;\n    newAutomobileItem.itemState = defaultState;\n    newAutomobileItem.productNotes = _productNotes;\n    newAutomobileItem.productID = upc + sku;\n    items[_upc] = newAutomobileItem;\n    // Increment sku\n    sku = sku + 1;\n  \n    // Emit the appropriate event\n     emit SupplyOrdered(_upc);\n  }\n\n  // Define a function 'receiveSuppliesForItem' that allows a Manufacturer to mark an item 'supplyReceived'\n  function receiveSuppliesForItem(uint _upc) public \n   \n  // Call modifier to check if upc has passed previous supply chain stage\n  supplyOrdered(_upc)\n  // Call modifier to verify caller of this function\n  verifyCaller(items[_upc].originManufacturerID)\n  {\n    items[_upc].itemState = State.SupplyReceived;\n    emit SupplyReceived(_upc);\n  }\n\n  // Define a function 'assembleAndManufacturedItem' that allows a Manufacturer to mark an item 'Assembled'\n  function assembleAndManufacturedItem(uint _upc) public \n  // Call modifier to check if upc has passed previous supply chain stage\n  supplyReceived(_upc)\n  // Call modifier to verify caller of this function\n   verifyCaller(items[_upc].originManufacturerID)\n  {\n    // Update the appropriate fields\n    items[_upc].itemState = State.Assembled;\n    // Emit the appropriate event\n    emit Assembled(_upc);\n  }\n\n  // Define a function 'sellItemToDealer' that allows a Manufacturer to mark an item 'forSaleToDealer'\n  function sellItemToDealer(uint _upc, uint _price) public \n  // Call modifier to check if upc has passed previous supply chain stage\n  assembled(_upc)\n  // Call modifier to verify caller of this function\n  verifyCaller(items[_upc].ownerID)\n  {\n    \n    // Update the appropriate fields\n    items[_upc].productPrice = _price;\n    items[_upc].itemState = State.ForSaleToDealer;\n    // Emit the appropriate event\n    emit ForSaleToDealer(_upc);\n  }\n\n  // Define a function 'buyItembyDealer' that allows the manufacturer to mark an item 'soldToDealer'\n  // Use the above defined modifiers to check if the item is available for sale, if the buyer has paid enough, \n  // and any excess ether sent is refunded back to the buyer\n  function buyItembyDealer(uint _upc, address dealerID) public payable \n    // Call modifier to check if upc has passed previous supply chain stage\n    forSaleToDealer(_upc)\n    // Call modifer to check if buyer has paid enough\n    paidEnough(items[_upc].productPrice)\n    // Call modifer to send any excess ether back to Dealer\n    checkValueTransferBackToDealer(_upc)\n    {\n    // Update the appropriate fields - ownerID, DealerID, itemState\n    items[_upc].ownerID = items[_upc].originManufacturerID;\n    items[_upc].dealerID = dealerID;\n    items[_upc].itemState = State.SoldToDealer;\n    // Transfer money to Manufacturer\n    items[_upc].dealerID.transfer(items[_upc].productPrice);\n    // emit the appropriate event\n    emit SoldToDealer(_upc);\n  }\n\n  // Define a function 'shipItem' that allows the Dealer to mark an item 'Shipped'\n  // Use the above modifers to check if the item is sold\n  function shipAutomobileItemToDealer(uint _upc) public \n    // Call modifier to check if upc has passed previous supply chain stage\n    soldToDealer(_upc)\n    // Call modifier to verify caller of this function\n    verifyCaller(items[_upc].originManufacturerID)\n    {\n    // Update the appropriate fields\n    items[_upc].itemState = State.ShippedToDealer;\n    // Emit the appropriate event\n    emit ShippedToDealer(_upc);\n  }\n\n  // Define a function 'receiveItemByDealer' that allows the Dealer to mark an item 'Received'\n  // Use the above modifiers to check if the item is shipped\n  function receiveItemByDealer(uint _upc) public\n    // Call modifier to check if upc has passed previous supply chain stage\n    shippedToDealer(_upc)\n    verifyCaller(items[_upc].originManufacturerID)\n    {\n    // Update the appropriate fields\n    items[_upc].ownerID = items[_upc].dealerID;\n    items[_upc].dealerID = items[_upc].dealerID;\n    items[_upc].itemState = State.ReceivedByDealer;\n    // Emit the appropriate event\n    emit ReceivedByDealer(_upc);\n  }\n\n  // Define a function 'purchaseItemByCustomer' that allows the Customer to mark an item 'Purchased'\n  // Use the above modifiers to check if the item is received\n  function purchaseItemByCustomer(uint _upc, address customerID) public payable \n    // Call modifier to check if upc has passed previous supply chain stage\n    receivedByDealer(_upc)\n    paidEnough(items[_upc].productPrice)\n    checkValue(_upc)\n    {\n    // Update the appropriate fields - ownerID, CustomerID, itemState\n     items[_upc].ownerID = items[_upc].dealerID;\n    items[_upc].customerID = customerID;\n    items[_upc].itemState = State.PurchasedByCustomer;\n\n    // Transfer money to Dealer\n    items[_upc].customerID.transfer((items[_upc].productPrice * 3) /10);\n\n    // Emit the appropriate event\n    emit PurchasedByCustomer(_upc);\n  }\n\n  // Define a function 'fetchItemBufferOne' that fetches the data\n  function fetchItemBufferOne(uint _upc) public view returns \n  (\n  uint    itemSKU,\n  uint    itemUPC,\n  address ownerID,\n  address originManufacturerID,\n  string originManufacturerName,\n  string originManufacturerInformation,\n  string originManufacturerLatitude,\n  string originManufacturerLongitude\n  ) \n  {\n  // Assign values to the 8 parameters\n     itemUPC = items[_upc].upc;\n     itemSKU = items[_upc].sku;\n     ownerID = items[_upc].ownerID;\n     originManufacturerID = items[_upc].originManufacturerID;\n     originManufacturerName = items[_upc].originManufacturerName;\n     originManufacturerInformation = items[_upc].originManufacturerInformation;\n     originManufacturerLatitude = items[_upc].originManufacturerLatitude;\n     originManufacturerLongitude = items[_upc].originManufacturerLongitude;\n    \n  return \n  (\n  itemSKU,\n  itemUPC,\n  ownerID,\n  originManufacturerID,\n  originManufacturerName,\n  originManufacturerInformation,\n  originManufacturerLatitude,\n  originManufacturerLongitude\n  );\n  }\n\n  // Define a function 'fetchItemBufferTwo' that fetches the data\n  function fetchItemBufferTwo(uint _upc) public view returns \n  (\n  uint    itemSKU,\n  uint    itemUPC,\n  uint    productID,\n  string  memory productNotes,\n  uint    productPrice,\n  State   itemState,\n  address dealerID,\n  address supplierID,\n  address customerID\n  ) \n  {\n    // Assign values to the 9 parameters\n    itemSKU = items[_upc].sku;\n    itemUPC = items[_upc].upc;\n    productID = items[_upc].productID;\n    productPrice = items[_upc].productPrice;\n    productNotes = items[_upc].productNotes;\n    itemState = items[_upc].itemState;\n    dealerID = items[_upc].dealerID;\n    supplierID = items[_upc].supplierID;\n    customerID = items[_upc].customerID; \n    \n  return \n  (\n  itemSKU,\n  itemUPC,\n  productID,\n  productNotes,\n  productPrice,\n  itemState,\n  dealerID,\n  supplierID,\n  customerID\n  );\n  }\n}\n",
  "sourcePath": "/Users/nikhilbhutani/blockchain_nanodegree/DAPP_for_supplychain/nd1309-Project-6b-Example-Template/project-6/contracts/AutomobileBase/SupplyChain.sol",
  "compiler": {
    "name": "solc",
    "version": "0.4.26+commit.4563c3fc.Emscripten.clang"
  },
  "schemaVersion": "3.0.23",
  "updatedAt": "2020-05-29T19:26:38.677Z",
  "networkType": "ethereum",
  "devdoc": {
    "methods": {}
  },
  "userdoc": {
    "methods": {
      "isOwner()": {
        "notice": "Check if the calling address is the owner of the contract"
      },
      "owner()": {
        "notice": "Look up the address of the owner"
      },
      "renounceOwnership()": {
        "notice": "Define a function to renounce ownerhip"
      },
      "transferOwnership(address)": {
        "notice": "Define a public function to transfer ownership"
      }
    }
  }
}