{
  "contractName": "DealerRole",
  "abi": [
    {
      "inputs": [],
      "payable": false,
      "stateMutability": "nonpayable",
      "type": "constructor"
    },
    {
      "anonymous": false,
      "inputs": [
        {
          "indexed": true,
          "name": "account",
          "type": "address"
        }
      ],
      "name": "DealerAdded",
      "type": "event"
    },
    {
      "anonymous": false,
      "inputs": [
        {
          "indexed": true,
          "name": "account",
          "type": "address"
        }
      ],
      "name": "DealerRemoved",
      "type": "event"
    },
    {
      "constant": true,
      "inputs": [
        {
          "name": "account",
          "type": "address"
        }
      ],
      "name": "isDealer",
      "outputs": [
        {
          "name": "",
          "type": "bool"
        }
      ],
      "payable": false,
      "stateMutability": "view",
      "type": "function"
    },
    {
      "constant": false,
      "inputs": [
        {
          "name": "account",
          "type": "address"
        }
      ],
      "name": "addDealer",
      "outputs": [],
      "payable": false,
      "stateMutability": "nonpayable",
      "type": "function"
    },
    {
      "constant": false,
      "inputs": [],
      "name": "renounceDealer",
      "outputs": [],
      "payable": false,
      "stateMutability": "nonpayable",
      "type": "function"
    }
  ],
  "bytecode": "0x608060405234801561001057600080fd5b506100293361002e640100000000026401000000009004565b6101e8565b61004f816000610095640100000000026102e5179091906401000000009004565b8073ffffffffffffffffffffffffffffffffffffffff167f98f3b9743e04ddffc992c14d8217e2d0467e51bbec660a88b2c756e6eebc4e6460405160405180910390a250565b600073ffffffffffffffffffffffffffffffffffffffff168173ffffffffffffffffffffffffffffffffffffffff16141515156100d157600080fd5b6100ea8282610154640100000000026401000000009004565b1515156100f657600080fd5b60018260000160008373ffffffffffffffffffffffffffffffffffffffff1673ffffffffffffffffffffffffffffffffffffffff16815260200190815260200160002060006101000a81548160ff0219169083151502179055505050565b60008073ffffffffffffffffffffffffffffffffffffffff168273ffffffffffffffffffffffffffffffffffffffff161415151561019157600080fd5b8260000160008373ffffffffffffffffffffffffffffffffffffffff1673ffffffffffffffffffffffffffffffffffffffff16815260200190815260200160002060009054906101000a900460ff16905092915050565b610470806101f76000396000f300608060405260043610610057576000357c0100000000000000000000000000000000000000000000000000000000900463ffffffff16806306d6cb761461005c578063304cc5e91461009f578063fe2e81d4146100b6575b600080fd5b34801561006857600080fd5b5061009d600480360381019080803573ffffffffffffffffffffffffffffffffffffffff169060200190929190505050610111565b005b3480156100ab57600080fd5b506100b4610175565b005b3480156100c257600080fd5b506100f7600480360381019080803573ffffffffffffffffffffffffffffffffffffffff169060200190929190505050610180565b604051808215151515815260200191505060405180910390f35b61011a33610180565b1515610169576040517f08c379a0000000000000000000000000000000000000000000000000000000008152600401808060200182810382526000815260200160200191505060405180910390fd5b6101728161019d565b50565b61017e336101f7565b565b600061019682600061025190919063ffffffff16565b9050919050565b6101b18160006102e590919063ffffffff16565b8073ffffffffffffffffffffffffffffffffffffffff167f98f3b9743e04ddffc992c14d8217e2d0467e51bbec660a88b2c756e6eebc4e6460405160405180910390a250565b61020b81600061039590919063ffffffff16565b8073ffffffffffffffffffffffffffffffffffffffff167f70c780c5d8c2660f173d2466e1f3d38e23d251e8d4620403b1577ca4415a3db260405160405180910390a250565b60008073ffffffffffffffffffffffffffffffffffffffff168273ffffffffffffffffffffffffffffffffffffffff161415151561028e57600080fd5b8260000160008373ffffffffffffffffffffffffffffffffffffffff1673ffffffffffffffffffffffffffffffffffffffff16815260200190815260200160002060009054906101000a900460ff16905092915050565b600073ffffffffffffffffffffffffffffffffffffffff168173ffffffffffffffffffffffffffffffffffffffff161415151561032157600080fd5b61032b8282610251565b15151561033757600080fd5b60018260000160008373ffffffffffffffffffffffffffffffffffffffff1673ffffffffffffffffffffffffffffffffffffffff16815260200190815260200160002060006101000a81548160ff0219169083151502179055505050565b600073ffffffffffffffffffffffffffffffffffffffff168173ffffffffffffffffffffffffffffffffffffffff16141515156103d157600080fd5b6103db8282610251565b15156103e657600080fd5b60008260000160008373ffffffffffffffffffffffffffffffffffffffff1673ffffffffffffffffffffffffffffffffffffffff16815260200190815260200160002060006101000a81548160ff02191690831515021790555050505600a165627a7a723058203ee4d42ba4f4e479682a197b19ad00e1d7057e6e21d2b2a11233182c551f5c8e0029",
  "source": "pragma solidity ^0.4.26;\n//pragma solidity >=0.4.24 <0.7.0;\n\n// Import the library 'Roles'\nimport \"./Roles.sol\";\n\n// Define a contract 'DealerRole' to manage this role - add, remove, check\ncontract DealerRole {\n  using Roles for Roles.Role;\n\n  // Define 2 events, one for Adding, and other for Removing\n  event DealerAdded(address indexed account);\n  event DealerRemoved(address indexed account);\n  \n  // Define a struct 'Dealers' by inheriting from 'Roles' library, struct Role\n  Roles.Role private Dealer;\n\n  // In the constructor make the address that deploys this contract the 1st Dealer\n  constructor() public {\n    _addDealer(msg.sender);\n  }\n\n  // Define a modifier that checks to see if msg.sender has the appropriate role\n  modifier onlyDealer() {\n    require(isDealer(msg.sender), \"\");\n    _;\n  }\n\n  // Define a function 'isDealer' to check this role\n  function isDealer(address account) public view returns (bool) {\n   return Dealer.has(account);\n  }\n\n  // Define a function 'addDealer' that adds this role\n  function addDealer(address account) public onlyDealer {\n    _addDealer(account);\n  }\n\n  // Define a function 'renounceDealer' to renounce this role\n  function renounceDealer() public {\n    _removeDealer(msg.sender);\n  }\n\n  // Define an internal function '_addDealer' to add this role, called by 'addDealer'\n  function _addDealer(address account) internal {\n    Dealer.add(account);\n    emit DealerAdded(account);\n  }\n\n  // Define an internal function '_removeDealer' to remove this role, called by 'removeDealer'\n  function _removeDealer(address account) internal {\n    Dealer.remove(account);\n    emit DealerRemoved(account);\n  }\n}",
  "sourcePath": "/Users/nikhilbhutani/blockchain_nanodegree/DAPP_for_supplychain/nd1309-Project-6b-Example-Template/project-6/contracts/AutomobileAccessControl/DealerRole.sol",
  "compiler": {
    "name": "solc",
    "version": "0.4.26+commit.4563c3fc.Emscripten.clang"
  },
  "schemaVersion": "3.0.23",
  "updatedAt": "2020-05-29T19:26:38.659Z",
  "networkType": "ethereum",
  "devdoc": {
    "methods": {}
  },
  "userdoc": {
    "methods": {}
  }
}