{
  "contractName": "SupplierRole",
  "abi": [
    {
      "inputs": [],
      "payable": false,
      "stateMutability": "nonpayable",
      "type": "constructor"
    },
    {
      "anonymous": false,
      "inputs": [
        {
          "indexed": true,
          "name": "account",
          "type": "address"
        }
      ],
      "name": "SupplierAdded",
      "type": "event"
    },
    {
      "anonymous": false,
      "inputs": [
        {
          "indexed": true,
          "name": "account",
          "type": "address"
        }
      ],
      "name": "SupplierRemoved",
      "type": "event"
    },
    {
      "constant": true,
      "inputs": [
        {
          "name": "account",
          "type": "address"
        }
      ],
      "name": "isSupplier",
      "outputs": [
        {
          "name": "",
          "type": "bool"
        }
      ],
      "payable": false,
      "stateMutability": "view",
      "type": "function"
    },
    {
      "constant": false,
      "inputs": [
        {
          "name": "account",
          "type": "address"
        }
      ],
      "name": "addSupplier",
      "outputs": [],
      "payable": false,
      "stateMutability": "nonpayable",
      "type": "function"
    },
    {
      "constant": false,
      "inputs": [],
      "name": "renounceSupplier",
      "outputs": [],
      "payable": false,
      "stateMutability": "nonpayable",
      "type": "function"
    }
  ],
  "bytecode": "0x608060405234801561001057600080fd5b506100293361002e640100000000026401000000009004565b6101e8565b61004f816000610095640100000000026102e4179091906401000000009004565b8073ffffffffffffffffffffffffffffffffffffffff167fa9f13e94f3f7dbf69ac8405e3aa6f43a6f162984687d099c7a5cd9b602552cc260405160405180910390a250565b600073ffffffffffffffffffffffffffffffffffffffff168173ffffffffffffffffffffffffffffffffffffffff16141515156100d157600080fd5b6100ea8282610154640100000000026401000000009004565b1515156100f657600080fd5b60018260000160008373ffffffffffffffffffffffffffffffffffffffff1673ffffffffffffffffffffffffffffffffffffffff16815260200190815260200160002060006101000a81548160ff0219169083151502179055505050565b60008073ffffffffffffffffffffffffffffffffffffffff168273ffffffffffffffffffffffffffffffffffffffff161415151561019157600080fd5b8260000160008373ffffffffffffffffffffffffffffffffffffffff1673ffffffffffffffffffffffffffffffffffffffff16815260200190815260200160002060009054906101000a900460ff16905092915050565b61046f806101f76000396000f300608060405260043610610057576000357c0100000000000000000000000000000000000000000000000000000000900463ffffffff16806317df47451461005c578063463365421461009f57806392024888146100fa575b600080fd5b34801561006857600080fd5b5061009d600480360381019080803573ffffffffffffffffffffffffffffffffffffffff169060200190929190505050610111565b005b3480156100ab57600080fd5b506100e0600480360381019080803573ffffffffffffffffffffffffffffffffffffffff169060200190929190505050610175565b604051808215151515815260200191505060405180910390f35b34801561010657600080fd5b5061010f610191565b005b61011a33610175565b1515610169576040517f08c379a0000000000000000000000000000000000000000000000000000000008152600401808060200182810382526000815260200160200191505060405180910390fd5b6101728161019c565b50565b600061018b8260006101f690919063ffffffff16565b50919050565b61019a3361028a565b565b6101b08160006102e490919063ffffffff16565b8073ffffffffffffffffffffffffffffffffffffffff167fa9f13e94f3f7dbf69ac8405e3aa6f43a6f162984687d099c7a5cd9b602552cc260405160405180910390a250565b60008073ffffffffffffffffffffffffffffffffffffffff168273ffffffffffffffffffffffffffffffffffffffff161415151561023357600080fd5b8260000160008373ffffffffffffffffffffffffffffffffffffffff1673ffffffffffffffffffffffffffffffffffffffff16815260200190815260200160002060009054906101000a900460ff16905092915050565b61029e81600061039490919063ffffffff16565b8073ffffffffffffffffffffffffffffffffffffffff167f278a641d7aa9abcb166cd13a30fc6d7f21034d4c003ce509a84214e11faa77c060405160405180910390a250565b600073ffffffffffffffffffffffffffffffffffffffff168173ffffffffffffffffffffffffffffffffffffffff161415151561032057600080fd5b61032a82826101f6565b15151561033657600080fd5b60018260000160008373ffffffffffffffffffffffffffffffffffffffff1673ffffffffffffffffffffffffffffffffffffffff16815260200190815260200160002060006101000a81548160ff0219169083151502179055505050565b600073ffffffffffffffffffffffffffffffffffffffff168173ffffffffffffffffffffffffffffffffffffffff16141515156103d057600080fd5b6103da82826101f6565b15156103e557600080fd5b60008260000160008373ffffffffffffffffffffffffffffffffffffffff1673ffffffffffffffffffffffffffffffffffffffff16815260200190815260200160002060006101000a81548160ff02191690831515021790555050505600a165627a7a72305820038c00e706adfc9908d060b4c0df2162853d89cea630f6f06c40ded929c3fb410029",
  "source": "pragma solidity ^0.4.26;\n//pragma solidity >=0.4.24 <0.7.0;\n//pragma solidity ^0.4.24;\n// Import the library 'Roles'\nimport \"./Roles.sol\";\n\n// Define a contract 'SupplierRole' to manage this role - add, remove, check\ncontract SupplierRole {\n  using Roles for Roles.Role;\n\n  // Define 2 events, one for Adding, and other for Removing\n  event SupplierAdded(address indexed account);\n  event SupplierRemoved(address indexed account);\n  \n  // Define a struct 'Suppliers' by inheriting from 'Roles' library, struct Role\n  Roles.Role private Supplier;\n\n  // In the constructor make the address that deploys this contract the 1st Supplier\n  constructor() public {\n    _addSupplier(msg.sender);\n  }\n\n  // Define a modifier that checks to see if msg.sender has the appropriate role\n  modifier onlySupplier() {\n    require(isSupplier(msg.sender), \"\");\n    _;\n  }\n\n  // Define a function 'isSupplier' to check this role\n  function isSupplier(address account) public view returns (bool) {\n    Supplier.has(account);\n  }\n\n  // Define a function 'addSupplier' that adds this role\n  function addSupplier(address account) public onlySupplier {\n    _addSupplier(account);\n  }\n\n  // Define a function 'renounceSupplier' to renounce this role\n  function renounceSupplier() public {\n    _removeSupplier(msg.sender);\n  }\n\n  // Define an internal function '_addSupplier' to add this role, called by 'addSupplier'\n  function _addSupplier(address account) internal {\n    Supplier.add(account);\n    emit SupplierAdded(account);\n  }\n\n  // Define an internal function '_removeSupplier' to remove this role, called by 'removeSupplier'\n  function _removeSupplier(address account) internal {\n    Supplier.remove(account);\n    emit SupplierRemoved(account);\n  }\n}",
  "sourcePath": "/Users/nikhilbhutani/blockchain_nanodegree/DAPP_for_supplychain/nd1309-Project-6b-Example-Template/project-6/contracts/AutomobileAccessControl/SupplierRole.sol",
  "compiler": {
    "name": "solc",
    "version": "0.4.26+commit.4563c3fc.Emscripten.clang"
  },
  "schemaVersion": "3.0.23",
  "updatedAt": "2020-05-29T19:26:38.662Z",
  "networkType": "ethereum",
  "devdoc": {
    "methods": {}
  },
  "userdoc": {
    "methods": {}
  }
}